:10000000171100001301817397000000E78000259D
:100010006F000000130101FE232E1100232C81002C
:10002000130401022326A4FE2324B4FEB717000004
:1000300093850722B71700001385873197000000CA
:10004000E7800061B717000093850724B717000009
:100050001385873197000000E780805F1300000060
:10006000138507008320C1010324810113010102CC
:1000700067800000130101F723261108232481085B
:1000800013040109232EA4F6232CB4F693050000D3
:10009000B71700001385873297100000E78080DED5
:1000A0002326A4FE93051000B7170000138587329E
:1000B00097100000E78000DD2324A4FE93052000B4
:1000C000B71700001385873297100000E78080DBA8
:1000D0002322A4FE8327C4FE130744FC1306A000BA
:1000E000930507001385070097100000E78080F54F
:1000F000832784FE130744FA1306A0009305070024
:100100001385070097100000E780C0F3832744FEA3
:10011000130744F81306A000930507001385070092
:1001200097100000E78000F2930744FC93850700D6
:10013000B71700001385873197000000E780405112
:10014000B717000093850724B71700001385873180
:1001500097000000E780C04F930744FA938507009B
:10016000B71700001385873197000000E780404EE5
:10017000B717000093850724B71700001385873150
:1001800097000000E780C04C930744F89385070070
:10019000B71700001385873197000000E780404BB8
:1001A000B717000093850724B71700001385873120
:1001B00097000000E780C049130000001385070086
:1001C0008320C1080324810813010109678000000E
:1001D000130101FE232E1100232C810013040102C0
:1001E00093070500A307F4FE9307F4FE9385070029
:1001F000B71700001385873197000000E780C037EC
:1002000013000000138507008320C101032481012E
:100210001301010267800000130101FE232E11006B
:10022000232C8100130401022326A4FE8325C4FE8F
:10023000B71700001385873197000000E780003B67
:1002400013000000138507008320C10103248101EE
:100250001301010267800000130101F32326110C32
:100260002324810C1304010D930780002300F4FE66
:1002700093071000A300F4FE930720002301F4FE6F
:10028000232204FE9307101A2324F4FEB70500105E
:10029000B71700001385873197000000E780C0166C
:1002A000930704FE93850700B71700001385873175
:1002B00097000000E780C01BB7050020B7170000BB
:1002C0001385873297100000E78040B5B71700000C
:1002D0009387472703A5070083A5470003A6870048
:1002E00083A6C70003A70701232AA4F2232CB4F294
:1002F000232EC4F22320D4F42322E4F483A747015D
:100300002324F4F4930710002326F4FE930544F30A
:100310001305C4F4B707000013878721B70700004F
:100320009386071D0326C4FE97100000E78000A1F6
:100330009307C4F41385070097100000E780C0A757
:10034000130000008320C10C0324810C1301010D54
:1003500067800000130101FE232E1100232C810071
:10036000130401022326A4FE0327C4FE93074000C2
:10037000630CF7060327C4FE9307400063EAE70611
:100380000327C4FE93073000630CF7040327C4FE61
:100390009307300063EEE7040327C4FE93072000B1
:1003A000630CF7020327C4FE9307200063E2E7040F
:1003B0008327C4FE638A07000327C4FE9307100047
:1003C0006308F7006F00C002930700006F0040024F
:1003D000930710006F00C001930720006F004001D9
:1003E000930730006F00C000930740006F0040008B
:1003F000138507008320C101032481011301010239
:1004000067800000130101FE232E1100232C8100C0
:10041000130401022326A4FE2324B4FE8327C4FE72
:10042000032784FE23A0E7008327C4FE032784FE5E
:1004300023A2E700832784FE138747008327C4FE97
:1004400023A4E700832784FE138787008327C4FE45
:1004500023A6E70013000000138507008320C101D5
:10046000032481011301010267800000130101FDD3
:10047000232611022324810213040103232EA4FC4A
:10048000232CB4FCB70700802326F4FE832784FDC9
:1004900083C707009397B7010327C4FEB367F7002C
:1004A0002326F4FE832784FD83C7170093979701C3
:1004B0000327C4FEB367F7002326F4FE832784FDD9
:1004C00083A747001385070097000000E780C0E876
:1004D0009307050093976701138707008327C4FEDE
:1004E000B3E7E7002326F4FE832784FD83C72700B4
:1004F000939747010327C4FEB367F7002326F4FE52
:10050000832784FD83A787000327C4FEB367F70012
:100510002326F4FE8327C4FD83A747000327C4FED8
:1005200023A0E70093070000138507008320C10282
:10053000032481021301010367800000130101FEFF
:10054000232E1100232C8100130401022326A4FE74
:100550008327C4FE83A7470023A00700930700005A
:10056000138507008320C1010324810113010102C7
:1005700067800000130101FD23261102232481025C
:1005800013040103232EA4FC232CB4FC93071000B6
:100590002326F4FE6F0000028327C4FD83A7870093
:1005A00083A707002324F4FE832784FE93F7072004
:1005B0002326F4FE8327C4FEE39007FE832784FDF1
:1005C00003C707008327C4FD83A7870023A0E70094
:1005D00093070000138507008320C10203248102D2
:1005E0001301010367800000130101FD232611029E
:1005F0002324810213040103232EA4FC232CB4FC26
:100600008327C4FD83A7C70083A707002326F4FE22
:100610008327C4FE13F7F70F832784FD2380E700A9
:100620008327C4FE93F70720638607009307000023
:100630006F00800093071000138507008320C1021C
:10064000032481021301010367800000130101FDEF
:10065000232611022324810213040103232EA4FC68
:10066000232CB4FC832784FD2326F4FE6F000002B4
:100670008325C4FE0325C4FD97000000E780C0EF7A
:100680008327C4FE938717002326F4FE8327C4FE26
:1006900083C70700E39E07FC1300000013850700D3
:1006A0008320C1020324810213010103678000003B
:1006B000130101FE232E1100232C810013040102DB
:1006C0002326A4FE93870500A305F4FE0347B4FE8A
:1006D00093078000631CF7028327C4FE83A70700EB
:1006E00013058000E78007008327C4FE83A7070067
:1006F00013050002E78007008327C4FE83A70700D5
:1007000013058000E78007006F0080018327C4FE87
:1007100083A707000347B4FE13050700E78007001F
:10072000130000008320C101032481011301010291
:1007300067800000130101FD23261102232481029A
:1007400013040103232EA4FC232CB4FC832784FD73
:100750002326F4FE6F0080028327C4FD83A70700D1
:100760000327C4FE0347070013050700E7800700BF
:100770008327C4FE938717002326F4FE8327C4FE35
:1007800083C70700E39A07FC130000001300000072
:100790008320C1020324810213010103678000004A
:1007A000130101FE232E1100232C810013040102EA
:1007B0002326A4FEB71700009385C7280325C4FE8F
:1007C00097000000E78040F7130000008320C1017C
:1007D000032481011301010267800000130101FE5F
:1007E000232E1100232C8100130401022326A4FED2
:1007F0002324B4FEB7170000938547290325C4FEC0
:1008000097000000E78040F3930500020325C4FE33
:1008100097000000E78000EA832584FE0325C4FEDC
:1008200097000000E78040F19305D0000325C4FE47
:1008300097000000E78000E89305A0000325C4FEB0
:1008400097000000E78000E7130000008320C1014B
:10085000032481011301010267800000130101FEDE
:10086000232E1100232C8100130401022326A4FE51
:10087000B71700009385872A0325C4FE9700000060
:10088000E78080EB130000008320C1010324810175
:100890001301010267800000130101FD23261102EC
:1008A0002324810213040103232EA4FC232CB4FC73
:1008B0008327C4FD83A707092326F4FE6F00C00722
:1008C000832784FD2324F4FE8327C4FE83A7070027
:1008D0002322F4FE6F00C001832784FE9387170054
:1008E0002324F4FE832744FE938717002322F4FE7B
:1008F000832784FE83C70700638C0700832784FE59
:1009000003C70700832744FE83C70700E306F7FCFD
:10091000832784FE03C70700832744FE83C707009D
:100920006316F7008327C4FE6F0040048327C4FECC
:100930009387C7002326F4FE8327C4FD03A7070976
:100940008327C4FD83A7C708938607009387060003
:1009500093971700B387D70093972700B307F70043
:100960000327C4FEE36EF7F4930700001385070026
:100970008320C10203248102130101036780000068
:10098000130101FD23261102232481021304010314
:10099000232EA4FC232604FE6F0000020327C4FDBF
:1009A0008327C4FEB307F700238607008327C4FE0E
:1009B000938717002326F4FE8327C4FD83A78700AF
:1009C0000327C4FEE36CF7FC8327C4FD23A40700C0
:1009D000130000008320C1020324810213010103DC
:1009E00067800000130101FA232E1104232C8104D7
:1009F000130401062326A4FA232604FE232C04FA5A
:100A0000232E04FA232004FC232204FC232404FCC8
:100A1000232604FC232804FC232A04FC8327C4FA8D
:100A200083A787009387F7FF0327C4FAB307F7006C
:100A300083C7C700A301F4FE034734FE9307D00029
:100A4000630AF7008327C4FA03A787009307F00718
:100A500063FEE7149305D0000325C4FA9700000055
:100A6000E78040C59305A0000325C4FA9700000065
:100A7000E78040C4232404FE232204FE6F00000A02
:100A80000327C4FA832744FEB307F7009387C70000
:100A9000232EF4FC8327C4FD03C70700930700023D
:100AA0006304F7028327C4FD03C707009307D00040
:100AB000630CF7008327C4FA83A787009387F7FFA7
:100AC000032744FE631EF7028327C4FD238007002B
:100AD000832784FE638E07028327C4FE13871700D3
:100AE0002326E4FE130784FB93972700B387E700D0
:100AF000032784FE23A0E700232404FE6F004001A7
:100B0000832784FE639607008327C4FD2324F4FE15
:100B1000832744FE938717002322F4FE8327C4FA19
:100B200083A78700032744FE6378F7000327C4FEEA
:100B300093077000E3D6E7F48327C4FE635AF004FA
:100B4000832784FB938507000325C4FA97000000E0
:100B5000E780C0D4232CA4FC832784FD6380070294
:100B6000832784FD83A74700130784FB93050700B1
:100B70000325C4FEE78007006F008001832784FB04
:100B8000938507000325C4FA97000000E78040C55D
:100B90000325C4FA97000000E780C0DE0325C4FAED
:100BA00097000000E78000C06F0080001300000085
:100BB0008320C1050324810513010106678000001D
:100BC000130101FE232E1100232C810013040102C6
:100BD0002326A4FE93870500A305F4FE0347B4FE75
:100BE000930780006318F7048327C4FE83A7870058
:100BF000638207128327C4FE83A787001387F7FF4A
:100C00008327C4FE23A4E7008327C4FE83A78700AD
:100C10000327C4FEB307F700238607008347B4FE0B
:100C2000938507000325C4FE97000000E78080A895
:100C30006F00400E8327C4FE03A787009307F007C9
:100C400063FAE7000325C4FE97000000E780C0D9DF
:100C50006F00800D0347B4FE9307D0006314F704C0
:100C60008327C4FE03A787009307F00763E8E70A1A
:100C70008327C4FE83A78700938617000327C4FE3B
:100C80002324D7000327C4FEB307F7000347B4FEAD
:100C90002386E7000325C4FE97000000E780C0D448
:100CA0006F00C0070347B4FE9307F00163FEE70639
:100CB0000347B4FE9307E00763E8E7068327C4FE13
:100CC00003A787009307F00763EEE7048327C4FEBA
:100CD00083A78700938617000327C4FE2324D70029
:100CE0000327C4FEB307F7000347B4FE2386E700DB
:100CF0008347B4FE938507000325C4FE97000000D8
:100D0000E780409B0325C4FE97000000E780C0CD2C
:100D10006F004001130000006F000001130000008D
:100D20006F008000130000008320C10103248101B3
:100D30001301010267800000130101FD2326110247
:100D400023248102130401032326A4FE2324B4FEDA
:100D50002322C4FE2320D4FE232EE4FC8327C4FEDA
:100D6000032704FE23A0E7008327C4FE0327C4FD56
:100D700023A2E7008327C4FE23A407000325C4FEA3
:100D800097000000E78000C08327C4FE032744FECD
:100D900023A6E7088327C4FE032784FE23A8E708C9
:100DA000130000008320C102032481021301010308
:100DB00067800000130101FD232611022324810214
:100DC00013040103232EA4FC0325C4FD9700000097
:100DD000E78000A90325C4FD97000000E780809C00
:100DE000130000008327C4FD83A747001307F4FE08
:100DF00013050700E780070093070500E39407FE4B
:100E00008347F4FE938507000325C4FD9700000087
:100E1000E78040DB6FF0DFFC130101FE232E1100A1
:100E2000232C8100130401022326A4FE2324B4FEF4
:100E30008327C4FE032784FE23A0E7008327C4FE84
:100E4000032784FE23A2E700832784FE138747003D
:100E50008327C4FE23A4E700832784FE138787002B
:100E60008327C4FE23A6E7001300000013850700B4
:100E70008320C10103248101130101026780000066
:100E8000130101FE232E1100232C81001304010203
:100E90002326A4FE2324B4FE032784FE9307200008
:100EA0006304F704032784FE9307200063E6E70446
:100EB000832784FE638A0700032784FE93071000BC
:100EC000630CF7006F0040038327C4FE83A747002D
:100ED00083A707006F0040028327C4FE83A7870013
:100EE00083A707006F0040018327C4FE83A7C700C4
:100EF00083A707006F004000138507008320C1010E
:100F0000032481011301010267800000634005068C
:100F100063C6050613860500930505001305F0FF5B
:100F2000630C060293061000637AB6006358C00093
:100F30001316160093961600E36AB6FE130500001A
:100F400063E6C500B385C5403365D50093D616006A
:100F500013561600E39606FE678000009382000099
:100F6000EFF05FFB13850500678002003305A040AA
:100F70006348B000B305B0406FF0DFF9B305B0408F
:100F800093820000EFF01FF93305A0406780020054
:100F90009382000063CA0500634C0500EFF09FF7E1
:100FA0001385050067800200B305B040E35805FED5
:100FB0003305A040EFF01FF63305B0406780020014
:100FC0001307E6FF9307200263E6E706130101FE1D
:100FD000232E1100930766FF639C0702635A0502E4
:100FE0009307D002138715002326B1002380F50054
:100FF0003305A0409305070097000000E780800CB0
:101000008320C1010325C100130101026780000094
:10101000138705002326B100930507009700000001
:10102000E780400A8320C1010325C10013010102AA
:101030006780000023800500130500006780000022
:101040001307E6FF9307200263E6E706130101FE9C
:10105000232E1100930766FF639C0702635A050263
:101060009307D002138715002326B1002380F500D3
:101070003305A0409305070097000000E780800437
:101080008320C1010325C100130101026780000014
:10109000138705002326B100930507009700000081
:1010A000E78040028320C1010325C1001301010232
:1010B00067800000238005001305000067800000A2
:1010C000B71700009387072F03A7070283AF070016
:1010D00003AF470083AE870003AEC70003A3070139
:1010E00083A8470103A8870183A6C70183C74702D6
:1010F000130101FB232A51032324E1022306F102F9
:10110000232611042324F1012326E1012328D10100
:10111000232AC101232C6100232E11012320010366
:101120002322D1021307E6FF93072002938A0500CA
:1011300063E8E70C23248104232291042320210562
:10114000232E3103232C410323286103930406003B
:10115000130405001309000093850400130504001F
:1011600097000000E780C0DF330525008347850036
:101170009309090013091900338A2A011305040091
:1011800093850400A30FFAFE130B040097000000E0
:10119000E78080D813040500E3709BFC23000A005D
:1011A000638A090293860A0033873A019307000095
:1011B0008345070003C60600938717002380B60007
:1011C0002300C7003386F940938616001307F7FF04
:1011D000E3C0C7FE032481048320C10483244104A7
:1011E000032901048329C103032A8103032B01037B
:1011F00013850A00832A410313010105678000005B
:10120000238005008320C104832A410313050000C5
:081210001301010567800000D5
:0812180017030000670083EAE0
:101220004F6A616CC3A1206C6C6567756520616C49
:1012300067756E612063617274612E2E2E0000004E
:101240000D0A000074657374000000005465737427
:101250002055415254000000616363656C0000003A
:101260005465737420616363656C65726F6D65743A
:101270006572000044120000140000004C120000CF
:101280005812000074000000601200007368656C62
:101290006C3E2000556E6B6E6F776E20636F6D6DC8
:1012A000616E643A000000000D0A3D3D3D3D3D3D4C
:1012B0003D3D3D3D3D3D3D3D3D3D3D3D3D3D3D0D8E
:1012C0000A2D2057656C636F6D6520746F2052493D
:1012D00053432D56202D0D0A3D3D3D3D3D3D3D3DA9
:1012E0003D3D3D3D3D3D3D3D3D3D3D3D3D0D0A00CE
:1012F000303132333435363738396162636465668C
:101300006768696A6B6C6D6E6F70717273747576F5
:051310007778797A00F6
:03131500000000D5
:00000001FF
