:10000000171100001301410E97000000E780400F18
:100010006F000000130101FE232E1100232C81002C
:10002000130401022326A4FE2324B4FEB717000004
:10003000938547C2B7170000138547CD970000008E
:10004000E780C042B7170000938547C4B717000088
:10005000138547CD97000000E78040411300000062
:10006000138507008320C1010324810113010102CC
:1000700067800000130101FE232E1100232C810054
:100080001304010293070500A307F4FE9307F4FE8F
:1000900093850700B7170000138547CD9700000030
:1000A000E780403013000000138507008320C10162
:1000B000032481011301010267800000130101FE86
:1000C000232E1100232C8100130401022326A4FEF9
:1000D0008325C4FEB7170000138547CD97000000A5
:1000E000E780003313000000138507008320C1015F
:1000F000032481011301010267800000130101F450
:10010000232E110A232C810A1304010C930780006B
:100110002300F4FE93071000A300F4FE93072000D1
:100120002301F4FE232204FE9307101A2324F4FE75
:10013000B7450000B7170000138547CD97000000B2
:10014000E7804010930704FE93850700B71700006F
:10015000138547CD97000000E780C014B717000053
:10016000938787C42320F4F4B707000093874701DF
:100170002322F4F4B7170000938707C52324F4F46F
:10018000930710002326F4FE930504F41305C4F42A
:10019000B70700001387C70BB70700009386470710
:1001A0000326C4FE97100000E780009A9307C4F46A
:1001B0001385070097100000E780C0A0130000001F
:1001C0008320C10B0324810B1301010C6780000005
:1001D000130101FE232E8100130401022326A4FE35
:1001E0000327C4FE9307400063E4E7048327C4FEAB
:1001F00013972700B71700009387C7C5B307F70009
:1002000083A7070067800700930700006F00400284
:10021000930710006F00C001930720006F0040019A
:10022000930730006F00C000930740006F0040004C
:10023000138507000324C101130101026780000038
:10024000130101FE232E8100130401022326A4FEC4
:100250002324B4FE8327C4FE032784FE23A0E700E3
:100260008327C4FE032784FE23A2E700832784FE9E
:10027000138747008327C4FE23A4E700832784FE57
:10028000138787008327C4FE23A6E700130000001E
:10029000138507000324C1011301010267800000D8
:1002A000130101FD232611022324810213040103FB
:1002B000232EA4FC232CB4FCB70700802326F4FED5
:1002C000832784FD83C707009397B7010327C4FEE4
:1002D000B367F7002326F4FE832784FD83C7170046
:1002E000939797010327C4FEB367F7002326F4FE14
:1002F000832784FD83A7470013850700970000002C
:10030000E78040ED93070500939767011387070087
:100310008327C4FEB3E7E7002326F4FE832784FD8A
:1003200083C72700939747010327C4FEB367F700ED
:100330002326F4FE832784FD83A787000327C4FEBA
:10034000B367F7002326F4FE8327C4FD83A7470085
:100350000327C4FE23A0E7009307000013850700CE
:100360008320C1020324810213010103678000007E
:10037000130101FE232E8100130401022326A4FE93
:100380008327C4FE83A7470023A00700930700002C
:10039000138507000324C1011301010267800000D7
:1003A000130101FD2326810213040103232EA4FC63
:1003B000232CB4FC930710002326F4FE6F000002E8
:1003C0008327C4FD83A7870083A707002324F4FEA7
:1003D000832784FE93F707202326F4FE8327C4FE99
:1003E000E39007FE832784FD03C707008327C4FD2E
:1003F00083A7870023A0E700930700001385070069
:100400000324C1021301010367800000130101FDF1
:100410002326810213040103232EA4FC232CB4FC05
:100420008327C4FD83A7C70083A707002326F4FE04
:100430008327C4FE13F7F70F832784FD2380E7008B
:100440008327C4FE93F70720638607009307000005
:100450006F00800093071000138507000324C1027A
:100460001301010367800000130101FD232611021F
:100470002324810213040103232EA4FC232CB4FCA7
:10048000832784FD2326F4FE6F0000028325C4FE2B
:100490000325C4FD97000000E780C0F08327C4FE59
:1004A000938717002326F4FE8327C4FE83C7070023
:1004B000E39E07FC13000000138507008320C102A0
:1004C000032481021301010367800000130101FE70
:1004D000232E1100232C8100130401022326A4FEE5
:1004E00093870500A305F4FE0347B4FE930780003D
:1004F000631CF7028327C4FE83A70700130580004F
:10050000E78007008327C4FE83A7070013050002C6
:10051000E78007008327C4FE83A707001305800038
:10052000E78007006F0080018327C4FE83A70700D0
:100530000347B4FE13050700E7800700130000001F
:100540008320C1010324810113010102678000009F
:10055000130101FD23261102232481021304010348
:10056000232EA4FC232CB4FC832784FD2326F4FE35
:100570006F0080028327C4FD83A707000327C4FE02
:100580000347070013050700E78007008327C4FE21
:10059000938717002326F4FE8327C4FE83C7070032
:1005A000E39A07FC13000000130000008320C1023F
:1005B000032481021301010367800000130101FE7F
:1005C000232E1100232C8100130401022326A4FEF4
:1005D000B7170000938507C70325C4FE97000000E6
:1005E000E78040F7130000008320C101032481014C
:1005F0001301010267800000130101FE232E110088
:10060000232C8100130401022326A4FE2324B4FE1C
:10061000B7170000938587C70325C4FE9700000025
:10062000E78040F3930500020325C4FE9700000015
:10063000E78000EA832584FE0325C4FE97000000BE
:10064000E78040F19305D0000325C4FE9700000029
:10065000E78000E89305A0000325C4FE9700000092
:10066000E78000E7130000008320C101032481011B
:100670001301010267800000130101FE232E110007
:10068000232C8100130401022326A4FEB7170000C7
:100690009385C7C80325C4FE97000000E78080EB60
:1006A000130000008320C101032481011301010212
:1006B00067800000130101FD23268102130401035A
:1006C000232EA4FC232CB4FC8327C4FD83A7070995
:1006D0002326F4FE6F00C007832784FD2324F4FE45
:1006E0008327C4FE83A707002322F4FE6F00C00106
:1006F000832784FE938717002324F4FE832744FE78
:10070000938717002322F4FE832784FE83C7070004
:10071000638C0700832784FE03C70700832744FEFA
:1007200083C70700E306F7FC832784FE03C707009F
:10073000832744FE83C707006316F7008327C4FEA0
:100740006F0040048327C4FE9387C7002326F4FE6E
:100750008327C4FD03A707098327C4FD83A7C70810
:10076000938607009387060093971700B387D700F7
:1007700093972700B307F7000327C4FEE36EF7F44F
:1007800093070000138507000324C102130101032E
:1007900067800000130101FD232681021304010379
:1007A000232EA4FC232604FE6F0000020327C4FDB1
:1007B0008327C4FEB307F700238607008327C4FE00
:1007C000938717002326F4FE8327C4FD83A78700A1
:1007D0000327C4FEE36CF7FC8327C4FD23A40700B2
:1007E000130000000324C10213010103678000000D
:1007F000130101FA232E1104232C81041304010692
:100800002326A4FA232604FE232C04FA232E04FA1A
:10081000232004FC232204FC232404FC232604FCC0
:10082000232804FC232A04FC8327C4FA83A7870017
:100830009387F7FF0327C4FAB307F70083C7C700FE
:10084000A301F4FE034734FE9307D000630AF700C8
:100850008327C4FA03A787009307F00763FEE71412
:100860009305D0000325C4FA97000000E78040C636
:100870009305A0000325C4FA97000000E78040C557
:10088000232404FE232204FE6F00000A0327C4FA77
:10089000832744FEB307F7009387C700232EF4FC99
:1008A0008327C4FD03C70700930700026304F70210
:1008B0008327C4FD03C707009307D000630CF7002C
:1008C0008327C4FA83A787009387F7FF032744FE93
:1008D000631EF7028327C4FD23800700832784FE5D
:1008E000638E07028327C4FE138717002326E4FEC6
:1008F00093972700938707FFB3878700032784FE1A
:1009000023A4E7FC232404FE6F004001832784FE18
:10091000639607008327C4FD2324F4FE832744FE47
:10092000938717002322F4FE8327C4FA83A7870046
:10093000032744FE6378F7000327C4FE9307700083
:10094000E3D6E7F48327C4FE635AF004832784FBCD
:10095000938507000325C4FA97000000E780C0D5FF
:10096000232CA4FC832784FD63800702832784FD56
:1009700083A74700130784FB930507000325C4FEE4
:10098000E78007006F008001832784FB93850700C1
:100990000325C4FA97000000E78040C60325C4FA87
:1009A00097000000E78040DF0325C4FA97000000AD
:1009B000E78000C16F008000130000008320C105A4
:1009C000032481051301010667800000130101FE65
:1009D000232E1100232C8100130401022326A4FEE0
:1009E00093870500A305F4FE0347B4FE9307800038
:1009F0006318F7048327C4FE83A787006382071266
:100A00008327C4FE83A787001387F7FF8327C4FECD
:100A100023A4E7008327C4FE83A787000327C4FE1F
:100A2000B307F700238607008347B4FE93850700CA
:100A30000325C4FE97000000E78080A96F00400EE8
:100A40008327C4FE03A787009307F00763FAE70034
:100A50000325C4FE97000000E780C0D96F00800D19
:100A60000347B4FE9307D0006314F7048327C4FE42
:100A700003A787009307F00763E8E70A8327C4FE0C
:100A800083A78700938617000327C4FE2324D7007B
:100A90000327C4FEB307F7000347B4FE2386E7002D
:100AA0000325C4FE97000000E780C0D46F00C00794
:100AB0000347B4FE9307F00163FEE7060347B4FE65
:100AC0009307E00763E8E7068327C4FE03A78700D0
:100AD0009307F00763EEE7048327C4FE83A787002C
:100AE000938617000327C4FE2324D7000327C4FEE0
:100AF000B307F7000347B4FE2386E7008347B4FE3D
:100B0000938507000325C4FE97000000E780409C02
:100B10000325C4FE97000000E780C0CD6F004001B0
:100B2000130000006F000001130000006F00800040
:100B3000130000008320C10103248101130101027D
:100B400067800000130101FD232611022324810286
:100B5000130401032326A4FE2324B4FE2322C4FE8F
:100B60002320D4FE232EE4FC8327C4FE032704FEA7
:100B700023A0E7008327C4FE0327C4FD23A2E700C8
:100B80008327C4FE23A407000325C4FE97000000AA
:100B9000E78080C08327C4FE032744FE23A6E7081E
:100BA0008327C4FE032784FE23A8E7081300000060
:100BB0008320C10203248102130101036780000026
:100BC000130101FD232611022324810213040103D2
:100BD000232EA4FC0325C4FD97000000E78000AA93
:100BE0000325C4FD97000000E780809D13000000EE
:100BF0008327C4FD83A747001307F4FE13050700EE
:100C0000E780070093070500E39407FE8347F4FE9F
:100C1000938507000325C4FD97000000E78040DBB3
:040C20006FF0DFFC96
:100C24004F6A616CC3A1206C6C6567756520616C4B
:100C340067756E612063617274612E2E2E00000050
:100C44000D0A000074657374000000005465737429
:100C54002055415254000000080200001002000018
:100C64001802000020020000280200007368656C6E
:100C74006C3E2000556E6B6E6F776E20636F6D6DEA
:100C8400616E643A000000000D0A3D3D3D3D3D3D6E
:100C94003D3D3D3D3D3D3D3D3D3D3D3D3D3D3D0DB0
:100CA4000A2D2057656C636F6D6520746F2052495F
:100CB40053432D56202D0D0A3D3D3D3D3D3D3D3DCB
:100CC4003D3D3D3D3D3D3D3D3D3D3D3D3D0D0A00F0
:00000001FF
